{
  "contractName": "ChainFund",
  "abi": [
    {
      "inputs": [],
      "stateMutability": "nonpayable",
      "type": "constructor"
    },
    {
      "inputs": [],
      "name": "MAX_ALLOWED_DAY_EXTENSION_OF_CAUSE",
      "outputs": [
        {
          "internalType": "uint256",
          "name": "",
          "type": "uint256"
        }
      ],
      "stateMutability": "view",
      "type": "function",
      "constant": true
    },
    {
      "inputs": [
        {
          "internalType": "string",
          "name": "",
          "type": "string"
        }
      ],
      "name": "causes",
      "outputs": [
        {
          "internalType": "string",
          "name": "title",
          "type": "string"
        },
        {
          "internalType": "string",
          "name": "description",
          "type": "string"
        },
        {
          "internalType": "address",
          "name": "creator",
          "type": "address"
        },
        {
          "internalType": "address payable",
          "name": "beneficiary",
          "type": "address"
        },
        {
          "internalType": "uint256",
          "name": "goal",
          "type": "uint256"
        },
        {
          "internalType": "uint256",
          "name": "currentAmount",
          "type": "uint256"
        },
        {
          "internalType": "uint256",
          "name": "deadlineTimestamp",
          "type": "uint256"
        }
      ],
      "stateMutability": "view",
      "type": "function",
      "constant": true
    },
    {
      "inputs": [
        {
          "internalType": "string",
          "name": "title",
          "type": "string"
        },
        {
          "internalType": "string",
          "name": "description",
          "type": "string"
        },
        {
          "internalType": "address payable",
          "name": "beneficiary",
          "type": "address"
        },
        {
          "internalType": "uint256",
          "name": "goal",
          "type": "uint256"
        },
        {
          "internalType": "uint256",
          "name": "deadlineInDays",
          "type": "uint256"
        }
      ],
      "name": "addCause",
      "outputs": [],
      "stateMutability": "nonpayable",
      "type": "function"
    },
    {
      "inputs": [
        {
          "internalType": "string",
          "name": "title",
          "type": "string"
        }
      ],
      "name": "donateToCause",
      "outputs": [],
      "stateMutability": "payable",
      "type": "function",
      "payable": true
    },
    {
      "inputs": [
        {
          "internalType": "string",
          "name": "title",
          "type": "string"
        }
      ],
      "name": "stopCause",
      "outputs": [
        {
          "internalType": "bool",
          "name": "",
          "type": "bool"
        }
      ],
      "stateMutability": "payable",
      "type": "function",
      "payable": true
    },
    {
      "inputs": [
        {
          "internalType": "string",
          "name": "title",
          "type": "string"
        },
        {
          "internalType": "uint256",
          "name": "daysToExtend",
          "type": "uint256"
        }
      ],
      "name": "extendCauseDeadline",
      "outputs": [
        {
          "internalType": "bool",
          "name": "",
          "type": "bool"
        }
      ],
      "stateMutability": "nonpayable",
      "type": "function"
    },
    {
      "inputs": [
        {
          "internalType": "string",
          "name": "title",
          "type": "string"
        },
        {
          "internalType": "uint256",
          "name": "goalIncrease",
          "type": "uint256"
        }
      ],
      "name": "increaseCauseGoal",
      "outputs": [
        {
          "internalType": "bool",
          "name": "",
          "type": "bool"
        }
      ],
      "stateMutability": "nonpayable",
      "type": "function"
    },
    {
      "inputs": [
        {
          "internalType": "string",
          "name": "title",
          "type": "string"
        },
        {
          "internalType": "string",
          "name": "similarCauseTitle",
          "type": "string"
        }
      ],
      "name": "addSimilarCause",
      "outputs": [],
      "stateMutability": "nonpayable",
      "type": "function"
    },
    {
      "inputs": [
        {
          "internalType": "string",
          "name": "title",
          "type": "string"
        }
      ],
      "name": "isCauseGoalReached",
      "outputs": [
        {
          "internalType": "bool",
          "name": "reached",
          "type": "bool"
        }
      ],
      "stateMutability": "view",
      "type": "function",
      "constant": true
    },
    {
      "inputs": [
        {
          "internalType": "string",
          "name": "title",
          "type": "string"
        }
      ],
      "name": "getCauseProgress",
      "outputs": [
        {
          "internalType": "uint256",
          "name": "",
          "type": "uint256"
        }
      ],
      "stateMutability": "view",
      "type": "function",
      "constant": true
    },
    {
      "inputs": [
        {
          "internalType": "string",
          "name": "title",
          "type": "string"
        }
      ],
      "name": "getCauseGoal",
      "outputs": [
        {
          "internalType": "uint256",
          "name": "",
          "type": "uint256"
        }
      ],
      "stateMutability": "view",
      "type": "function",
      "constant": true
    },
    {
      "inputs": [
        {
          "internalType": "string",
          "name": "title",
          "type": "string"
        }
      ],
      "name": "getCauseDeadlineInTimestamp",
      "outputs": [
        {
          "internalType": "uint256",
          "name": "",
          "type": "uint256"
        }
      ],
      "stateMutability": "view",
      "type": "function",
      "constant": true
    },
    {
      "inputs": [
        {
          "internalType": "string",
          "name": "title",
          "type": "string"
        }
      ],
      "name": "checkDaysLeftForCause",
      "outputs": [
        {
          "internalType": "uint256",
          "name": "",
          "type": "uint256"
        }
      ],
      "stateMutability": "view",
      "type": "function",
      "constant": true
    },
    {
      "inputs": [
        {
          "internalType": "string",
          "name": "title",
          "type": "string"
        }
      ],
      "name": "getCauseDescription",
      "outputs": [
        {
          "internalType": "string",
          "name": "",
          "type": "string"
        }
      ],
      "stateMutability": "view",
      "type": "function",
      "constant": true
    },
    {
      "inputs": [
        {
          "internalType": "string",
          "name": "title",
          "type": "string"
        }
      ],
      "name": "getDonationsForCause",
      "outputs": [
        {
          "internalType": "address[]",
          "name": "",
          "type": "address[]"
        },
        {
          "internalType": "uint256[]",
          "name": "",
          "type": "uint256[]"
        },
        {
          "internalType": "uint256[]",
          "name": "",
          "type": "uint256[]"
        }
      ],
      "stateMutability": "view",
      "type": "function",
      "constant": true
    },
    {
      "inputs": [],
      "name": "getNumberOfRegisteredCauses",
      "outputs": [
        {
          "internalType": "uint256",
          "name": "",
          "type": "uint256"
        }
      ],
      "stateMutability": "view",
      "type": "function",
      "constant": true
    },
    {
      "inputs": [],
      "name": "getNumberOfFinishedCauses",
      "outputs": [
        {
          "internalType": "uint256",
          "name": "",
          "type": "uint256"
        }
      ],
      "stateMutability": "view",
      "type": "function",
      "constant": true
    }
  ],
  "bytecode": "0x608060405234801561001057600080fd5b50600080819055506000600181905550612de08061002f6000396000f3fe6080604052600436106100fe5760003560e01c806359b78d9e11610095578063aa72058f11610064578063aa72058f14610da8578063acdcf99214610dd3578063b22ad4e214610eb3578063b6a8d29714610f8f578063fc1a345714611062576100fe565b806359b78d9e146108945780636a3aed631461097e578063721ec2a814610a685780637f19c55914610c15576100fe565b806324655aa0116100d157806324655aa0146105735780633936c8e81461064f5780633ef4694f1461070a5780634d5af19514610735576100fe565b80630370f44a146101035780630a33b3b41461024457806319be9f881461026f5780631d1e1db214610497575b600080fd5b34801561010f57600080fd5b506101c96004803603602081101561012657600080fd5b810190808035906020019064010000000081111561014357600080fd5b82018360208201111561015557600080fd5b8035906020019184600183028401116401000000008311171561017757600080fd5b91908080601f016020809104026020016040519081016040528093929190818152602001838380828437600081840152601f19601f82011690508083019250505050505050919291929050505061113e565b6040518080602001828103825283818151815260200191508051906020019080838360005b838110156102095780820151818401526020810190506101ee565b50505050905090810190601f1680156102365780820380516001836020036101000a031916815260200191505b509250505060405180910390f35b34801561025057600080fd5b506102596112b0565b6040518082815260200191505060405180910390f35b34801561027b57600080fd5b506103356004803603602081101561029257600080fd5b81019080803590602001906401000000008111156102af57600080fd5b8201836020820111156102c157600080fd5b803590602001918460018302840111640100000000831117156102e357600080fd5b91908080601f016020809104026020016040519081016040528093929190818152602001838380828437600081840152601f19601f8201169050808301925050505050505091929192905050506112b5565b6040518080602001806020018873ffffffffffffffffffffffffffffffffffffffff1673ffffffffffffffffffffffffffffffffffffffff1681526020018773ffffffffffffffffffffffffffffffffffffffff1673ffffffffffffffffffffffffffffffffffffffff16815260200186815260200185815260200184815260200183810383528a818151815260200191508051906020019080838360005b838110156103ef5780820151818401526020810190506103d4565b50505050905090810190601f16801561041c5780820380516001836020036101000a031916815260200191505b50838103825289818151815260200191508051906020019080838360005b8381101561045557808201518184015260208101905061043a565b50505050905090810190601f1680156104825780820380516001836020036101000a031916815260200191505b50995050505050505050505060405180910390f35b3480156104a357600080fd5b5061055d600480360360208110156104ba57600080fd5b81019080803590602001906401000000008111156104d757600080fd5b8201836020820111156104e957600080fd5b8035906020019184600183028401116401000000008311171561050b57600080fd5b91908080601f016020809104026020016040519081016040528093929190818152602001838380828437600081840152601f19601f82011690508083019250505050505050919291929050505061147d565b6040518082815260200191505060405180910390f35b34801561057f57600080fd5b506106396004803603602081101561059657600080fd5b81019080803590602001906401000000008111156105b357600080fd5b8201836020820111156105c557600080fd5b803590602001918460018302840111640100000000831117156105e757600080fd5b91908080601f016020809104026020016040519081016040528093929190818152602001838380828437600081840152601f19601f820116905080830192505050505050509192919290505050611557565b6040518082815260200191505060405180910390f35b6107086004803603602081101561066557600080fd5b810190808035906020019064010000000081111561068257600080fd5b82018360208201111561069457600080fd5b803590602001918460018302840111640100000000831117156106b657600080fd5b91908080601f016020809104026020016040519081016040528093929190818152602001838380828437600081840152601f19601f820116905080830192505050505050509192919290505050611656565b005b34801561071657600080fd5b5061071f611936565b6040518082815260200191505060405180910390f35b34801561074157600080fd5b506108926004803603604081101561075857600080fd5b810190808035906020019064010000000081111561077557600080fd5b82018360208201111561078757600080fd5b803590602001918460018302840111640100000000831117156107a957600080fd5b91908080601f016020809104026020016040519081016040528093929190818152602001838380828437600081840152601f19601f8201169050808301925050505050505091929192908035906020019064010000000081111561080c57600080fd5b82018360208201111561081e57600080fd5b8035906020019184600183028401116401000000008311171561084057600080fd5b91908080601f016020809104026020016040519081016040528093929190818152602001838380828437600081840152601f19601f820116905080830192505050505050509192919290505050611940565b005b3480156108a057600080fd5b50610964600480360360408110156108b757600080fd5b81019080803590602001906401000000008111156108d457600080fd5b8201836020820111156108e657600080fd5b8035906020019184600183028401116401000000008311171561090857600080fd5b91908080601f016020809104026020016040519081016040528093929190818152602001838380828437600081840152601f19601f82011690508083019250505050505050919291929080359060200190929190505050611aa9565b604051808215151515815260200191505060405180910390f35b34801561098a57600080fd5b50610a4e600480360360408110156109a157600080fd5b81019080803590602001906401000000008111156109be57600080fd5b8201836020820111156109d057600080fd5b803590602001918460018302840111640100000000831117156109f257600080fd5b91908080601f016020809104026020016040519081016040528093929190818152602001838380828437600081840152601f19601f82011690508083019250505050505050919291929080359060200190929190505050611cb7565b604051808215151515815260200191505060405180910390f35b348015610a7457600080fd5b50610b2e60048036036020811015610a8b57600080fd5b8101908080359060200190640100000000811115610aa857600080fd5b820183602082011115610aba57600080fd5b80359060200191846001830284011164010000000083111715610adc57600080fd5b91908080601f016020809104026020016040519081016040528093929190818152602001838380828437600081840152601f19601f820116905080830192505050505050509192919290505050611f24565b60405180806020018060200180602001848103845287818151815260200191508051906020019060200280838360005b83811015610b79578082015181840152602081019050610b5e565b50505050905001848103835286818151815260200191508051906020019060200280838360005b83811015610bbb578082015181840152602081019050610ba0565b50505050905001848103825285818151815260200191508051906020019060200280838360005b83811015610bfd578082015181840152602081019050610be2565b50505050905001965050505050505060405180910390f35b348015610c2157600080fd5b50610da6600480360360a0811015610c3857600080fd5b8101908080359060200190640100000000811115610c5557600080fd5b820183602082011115610c6757600080fd5b80359060200191846001830284011164010000000083111715610c8957600080fd5b91908080601f016020809104026020016040519081016040528093929190818152602001838380828437600081840152601f19601f82011690508083019250505050505050919291929080359060200190640100000000811115610cec57600080fd5b820183602082011115610cfe57600080fd5b80359060200191846001830284011164010000000083111715610d2057600080fd5b91908080601f016020809104026020016040519081016040528093929190818152602001838380828437600081840152601f19601f820116905080830192505050505050509192919290803573ffffffffffffffffffffffffffffffffffffffff1690602001909291908035906020019092919080359060200190929190505050612205565b005b348015610db457600080fd5b50610dbd6124da565b6040518082815260200191505060405180910390f35b348015610ddf57600080fd5b50610e9960048036036020811015610df657600080fd5b8101908080359060200190640100000000811115610e1357600080fd5b820183602082011115610e2557600080fd5b80359060200191846001830284011164010000000083111715610e4757600080fd5b91908080601f016020809104026020016040519081016040528093929190818152602001838380828437600081840152601f19601f8201169050808301925050505050505091929192905050506124e3565b604051808215151515815260200191505060405180910390f35b348015610ebf57600080fd5b50610f7960048036036020811015610ed657600080fd5b8101908080359060200190640100000000811115610ef357600080fd5b820183602082011115610f0557600080fd5b80359060200191846001830284011164010000000083111715610f2757600080fd5b91908080601f016020809104026020016040519081016040528093929190818152602001838380828437600081840152601f19601f8201169050808301925050505050505091929192905050506125c1565b6040518082815260200191505060405180910390f35b61104860048036036020811015610fa557600080fd5b8101908080359060200190640100000000811115610fc257600080fd5b820183602082011115610fd457600080fd5b80359060200191846001830284011164010000000083111715610ff657600080fd5b91908080601f016020809104026020016040519081016040528093929190818152602001838380828437600081840152601f19601f82011690508083019250505050505050919291929050505061269b565b604051808215151515815260200191505060405180910390f35b34801561106e57600080fd5b506111286004803603602081101561108557600080fd5b81019080803590602001906401000000008111156110a257600080fd5b8201836020820111156110b457600080fd5b803590602001918460018302840111640100000000831117156110d657600080fd5b91908080601f016020809104026020016040519081016040528093929190818152602001838380828437600081840152601f19601f8201169050808301925050505050505091929192905050506128a8565b6040518082815260200191505060405180910390f35b606061114982612982565b61119e576040517f08c379a0000000000000000000000000000000000000000000000000000000008152600401808060200182810382526021815260200180612c4c6021913960400191505060405180910390fd5b60006004836040518082805190602001908083835b602083106111d657805182526020820191506020810190506020830392506111b3565b6001836020036101000a03801982511681845116808217855250505050505090500191505090815260200160405180910390209050806001018054600181600116156101000203166002900480601f0160208091040260200160405190810160405280929190818152602001828054600181600116156101000203166002900480156112a35780601f10611278576101008083540402835291602001916112a3565b820191906000526020600020905b81548152906001019060200180831161128657829003601f168201915b5050505050915050919050565b601e81565b600481805160208101820180518482526020830160208501208183528095505050505050600091509050806000018054600181600116156101000203166002900480601f0160208091040260200160405190810160405280929190818152602001828054600181600116156101000203166002900480156113775780601f1061134c57610100808354040283529160200191611377565b820191906000526020600020905b81548152906001019060200180831161135a57829003601f168201915b505050505090806001018054600181600116156101000203166002900480601f0160208091040260200160405190810160405280929190818152602001828054600181600116156101000203166002900480156114155780601f106113ea57610100808354040283529160200191611415565b820191906000526020600020905b8154815290600101906020018083116113f857829003601f168201915b5050505050908060020160009054906101000a900473ffffffffffffffffffffffffffffffffffffffff16908060030160009054906101000a900473ffffffffffffffffffffffffffffffffffffffff16908060040154908060050154908060060154905087565b600061148882612982565b6114dd576040517f08c379a0000000000000000000000000000000000000000000000000000000008152600401808060200182810382526021815260200180612c4c6021913960400191505060405180910390fd5b60006004836040518082805190602001908083835b6020831061151557805182526020820191506020810190506020830392506114f2565b6001836020036101000a038019825116818451168082178552505050505050905001915050908152602001604051809103902090508060050154915050919050565b600061156282612982565b6115b7576040517f08c379a0000000000000000000000000000000000000000000000000000000008152600401808060200182810382526021815260200180612c4c6021913960400191505060405180910390fd5b60006004836040518082805190602001908083835b602083106115ef57805182526020820191506020810190506020830392506115cc565b6001836020036101000a03801982511681845116808217855250505050505090500191505090815260200160405180910390209050428160060154101561163a576000915050611651565b62015180428260060154038161164c57fe5b049150505b919050565b61165f81612982565b6116b4576040517f08c379a0000000000000000000000000000000000000000000000000000000008152600401808060200182810382526021815260200180612c4c6021913960400191505060405180910390fd5b6116bd81612a02565b15611730576040517f08c379a000000000000000000000000000000000000000000000000000000000815260040180806020018281038252601e8152602001807f6572726f72203a20636175736520616c72656164792066696e6973686564000081525060200191505060405180910390fd5b60006004826040518082805190602001908083835b602083106117685780518252602082019150602081019050602083039250611745565b6001836020036101000a0380198251168184511680821785525050505050509050019150509081526020016040518091039020905042816006015410156117c1576117b281612a82565b6117bb82612afa565b50611933565b600033905060003490506000600584600001604051808280546001816001161561010002031660029004801561182e5780601f1061180c57610100808354040283529182019161182e565b820191906000526020600020905b81548152906001019060200180831161181a575b5050915050908152602001604051809103902090508184600501600082825401925050819055508060405180606001604052808573ffffffffffffffffffffffffffffffffffffffff16815260200184815260200142815250908060018154018082558091505060019003906000526020600020906003020160009091909190915060008201518160000160006101000a81548173ffffffffffffffffffffffffffffffffffffffff021916908373ffffffffffffffffffffffffffffffffffffffff1602179055506020820151816001015560408201518160020155505061191684612b91565b1561192e5761192484612a82565b61192d85612afa565b5b505050505b50565b6000600154905090565b61194982612982565b61199e576040517f08c379a0000000000000000000000000000000000000000000000000000000008152600401808060200182810382526029815260200180612ce76029913960400191505060405180910390fd5b6119a781612982565b6119fc576040517f08c379a0000000000000000000000000000000000000000000000000000000008152600401808060200182810382526031815260200180612d106031913960400191505060405180910390fd5b60006006836040518082805190602001908083835b60208310611a345780518252602082019150602081019050602083039250611a11565b6001836020036101000a038019825116818451168082178552505050505050905001915050908152602001604051809103902090508082908060018154018082558091505060019003906000526020600020016000909190919091509080519060200190611aa3929190612ba6565b50505050565b6000611ab483612982565b611b09576040517f08c379a0000000000000000000000000000000000000000000000000000000008152600401808060200182810382526021815260200180612c4c6021913960400191505060405180910390fd5b611b1283612a02565b15611b85576040517f08c379a000000000000000000000000000000000000000000000000000000000815260040180806020018281038252601e8152602001807f6572726f72203a20636175736520616c72656164792066696e6973686564000081525060200191505060405180910390fd5b60006004846040518082805190602001908083835b60208310611bbd5780518252602082019150602081019050602083039250611b9a565b6001836020036101000a038019825116818451168082178552505050505050905001915050908152602001604051809103902090503373ffffffffffffffffffffffffffffffffffffffff168160020160009054906101000a900473ffffffffffffffffffffffffffffffffffffffff1673ffffffffffffffffffffffffffffffffffffffff1614611c9a576040517f08c379a000000000000000000000000000000000000000000000000000000000815260040180806020018281038252603b815260200180612cac603b913960400191505060405180910390fd5b828160040160008282540192505081905550600191505092915050565b6000611cc283612982565b611d17576040517f08c379a0000000000000000000000000000000000000000000000000000000008152600401808060200182810382526021815260200180612c4c6021913960400191505060405180910390fd5b611d2083612a02565b15611d93576040517f08c379a000000000000000000000000000000000000000000000000000000000815260040180806020018281038252601e8152602001807f6572726f72203a20636175736520616c72656164792066696e6973686564000081525060200191505060405180910390fd5b60006004846040518082805190602001908083835b60208310611dcb5780518252602082019150602081019050602083039250611da8565b6001836020036101000a038019825116818451168082178552505050505050905001915050908152602001604051809103902090503373ffffffffffffffffffffffffffffffffffffffff168160020160009054906101000a900473ffffffffffffffffffffffffffffffffffffffff1673ffffffffffffffffffffffffffffffffffffffff1614611ea8576040517f08c379a000000000000000000000000000000000000000000000000000000000815260040180806020018281038252603f815260200180612c6d603f913960400191505060405180910390fd5b601e831115611f02576040517f08c379a0000000000000000000000000000000000000000000000000000000008152600401808060200182810382526030815260200180612d416030913960400191505060405180910390fd5b6201518083028160060160008282540192505081905550600191505092915050565b6060806060611f3284612982565b611f87576040517f08c379a0000000000000000000000000000000000000000000000000000000008152600401808060200182810382526021815260200180612c4c6021913960400191505060405180910390fd5b60006005856040518082805190602001908083835b60208310611fbf5780518252602082019150602081019050602083039250611f9c565b6001836020036101000a038019825116818451168082178552505050505050905001915050908152602001604051809103902090506060818054905067ffffffffffffffff8111801561201157600080fd5b506040519080825280602002602001820160405280156120405781602001602082028036833780820191505090505b5090506060828054905067ffffffffffffffff8111801561206057600080fd5b5060405190808252806020026020018201604052801561208f5781602001602082028036833780820191505090505b5090506060838054905067ffffffffffffffff811180156120af57600080fd5b506040519080825280602002602001820160405280156120de5781602001602082028036833780820191505090505b50905060008090505b84805490508110156121f0578481815481106120ff57fe5b906000526020600020906003020160000160009054906101000a900473ffffffffffffffffffffffffffffffffffffffff1684828151811061213d57fe5b602002602001019073ffffffffffffffffffffffffffffffffffffffff16908173ffffffffffffffffffffffffffffffffffffffff168152505084818154811061218357fe5b9060005260206000209060030201600101548382815181106121a157fe5b6020026020010181815250508481815481106121b957fe5b9060005260206000209060030201600201548282815181106121d757fe5b60200260200101818152505080806001019150506120e7565b50828282965096509650505050509193909250565b61220e85612982565b15612281576040517f08c379a00000000000000000000000000000000000000000000000000000000081526004018080602001828103825260208152602001807f6572726f72203a20636175736520616c7265616479207265676973746572656481525060200191505060405180910390fd5b60003390506040518060e001604052808781526020018681526020018273ffffffffffffffffffffffffffffffffffffffff1681526020018573ffffffffffffffffffffffffffffffffffffffff1681526020018481526020016000815260200142620151808502018152506004876040518082805190602001908083835b602083106123235780518252602082019150602081019050602083039250612300565b6001836020036101000a03801982511681845116808217855250505050505090500191505090815260200160405180910390206000820151816000019080519060200190612372929190612ba6565b50602082015181600101908051906020019061238f929190612ba6565b5060408201518160020160006101000a81548173ffffffffffffffffffffffffffffffffffffffff021916908373ffffffffffffffffffffffffffffffffffffffff16021790555060608201518160030160006101000a81548173ffffffffffffffffffffffffffffffffffffffff021916908373ffffffffffffffffffffffffffffffffffffffff1602179055506080820151816004015560a0820151816005015560c08201518160060155905050600080815480929190600101919050555060016002876040518082805190602001908083835b602083106124885780518252602082019150602081019050602083039250612465565b6001836020036101000a038019825116818451168082178552505050505050905001915050908152602001604051809103902060006101000a81548160ff021916908315150217905550505050505050565b60008054905090565b60006124ee82612982565b612543576040517f08c379a0000000000000000000000000000000000000000000000000000000008152600401808060200182810382526021815260200180612c4c6021913960400191505060405180910390fd5b60006004836040518082805190602001908083835b6020831061257b5780518252602082019150602081019050602083039250612558565b6001836020036101000a038019825116818451168082178552505050505050905001915050908152602001604051809103902090506125b981612b91565b915050919050565b60006125cc82612982565b612621576040517f08c379a0000000000000000000000000000000000000000000000000000000008152600401808060200182810382526021815260200180612c4c6021913960400191505060405180910390fd5b60006004836040518082805190602001908083835b602083106126595780518252602082019150602081019050602083039250612636565b6001836020036101000a038019825116818451168082178552505050505050905001915050908152602001604051809103902090508060040154915050919050565b60006126a682612982565b6126fb576040517f08c379a0000000000000000000000000000000000000000000000000000000008152600401808060200182810382526021815260200180612c4c6021913960400191505060405180910390fd5b61270482612a02565b15612777576040517f08c379a000000000000000000000000000000000000000000000000000000000815260040180806020018281038252601e8152602001807f6572726f72203a20636175736520616c72656164792066696e6973686564000081525060200191505060405180910390fd5b60006004836040518082805190602001908083835b602083106127af578051825260208201915060208101905060208303925061278c565b6001836020036101000a038019825116818451168082178552505050505050905001915050908152602001604051809103902090503373ffffffffffffffffffffffffffffffffffffffff168160020160009054906101000a900473ffffffffffffffffffffffffffffffffffffffff1673ffffffffffffffffffffffffffffffffffffffff161461288c576040517f08c379a000000000000000000000000000000000000000000000000000000000815260040180806020018281038252603a815260200180612d71603a913960400191505060405180910390fd5b61289581612a82565b61289e83612afa565b6001915050919050565b60006128b382612982565b612908576040517f08c379a0000000000000000000000000000000000000000000000000000000008152600401808060200182810382526021815260200180612c4c6021913960400191505060405180910390fd5b60006004836040518082805190602001908083835b60208310612940578051825260208201915060208101905060208303925061291d565b6001836020036101000a038019825116818451168082178552505050505050905001915050908152602001604051809103902090508060060154915050919050565b60006002826040518082805190602001908083835b602083106129ba5780518252602082019150602081019050602083039250612997565b6001836020036101000a038019825116818451168082178552505050505050905001915050908152602001604051809103902060009054906101000a900460ff169050919050565b60006003826040518082805190602001908083835b60208310612a3a5780518252602082019150602081019050602083039250612a17565b6001836020036101000a038019825116818451168082178552505050505050905001915050908152602001604051809103902060009054906101000a900460ff169050919050565b6000816005015490508160030160009054906101000a900473ffffffffffffffffffffffffffffffffffffffff1673ffffffffffffffffffffffffffffffffffffffff166108fc829081150290604051600060405180830381858888f19350505050158015612af5573d6000803e3d6000fd5b505050565b60016000815480929190600101919050555060016003826040518082805190602001908083835b60208310612b445780518252602082019150602081019050602083039250612b21565b6001836020036101000a038019825116818451168082178552505050505050905001915050908152602001604051809103902060006101000a81548160ff02191690831515021790555050565b60008160040154826005015410159050919050565b828054600181600116156101000203166002900490600052602060002090601f016020900481019282601f10612be757805160ff1916838001178555612c15565b82800160010185558215612c15579182015b82811115612c14578251825591602001919060010190612bf9565b5b509050612c229190612c26565b5090565b612c4891905b80821115612c44576000816000905550600101612c2c565b5090565b9056fe6572726f72203a206e6f74207375636820636175736520726567697374657265646572726f72203a20746f20657874656e642074686520646561646c696e6520796f75206861766520746f206265207468652063617573652063726561746f726572726f72203a20746f20657874656e642074686520676f616c20796f75206861766520746f206265207468652063617573652063726561746f726572726f72203a206361757365202d206e6f74207375636820636175736520726567697374657265646572726f72203a2073696d696c6172206361757365202d206e6f74207375636820636175736520726567697374657265646572726f72203a20746865206d6178696d756d20616c6c6f77656420657874656e73696f6e20697320333020646179736572726f72203a20746f2073746f702074686520636175736520796f75206861766520746f206265207468652063617573652063726561746f72a264697066735822122062ca1b3ec7d2db4efe90014c47e3150c6ecbbeec2ae7c13cdcda05219f19d17564736f6c63430006080033",
  "immutableReferences": {},
  "source": "// SPDX-License-Identifier: GPL-3.0\npragma solidity >=0.6.6 <0.8.0;\n\nimport \"./Cause.sol\";\nimport \"./Donator.sol\";\n\ncontract ChainFund {\n    uint256 private constant SECONDS_IN_DAY = 24 * 60 * 60;\n\n    uint256 private registeredCausesCount;\n    uint256 private finishedCausesCount;\n\n    mapping(string => bool) private registeredCausesMap;\n    mapping(string => bool) private finishedCausesMap;\n\n    mapping(string => Cause) public causes;\n    mapping(string => Donation[]) private causeDonators;\n\n    mapping(string => string[]) private similarCauses;\n\n    uint256 public constant MAX_ALLOWED_DAY_EXTENSION_OF_CAUSE = 30;\n\n    constructor () public {\n        registeredCausesCount = 0;\n        finishedCausesCount = 0;\n    }\n\n    function addCause(string memory title, string memory description, address payable beneficiary, uint256 goal, uint256 deadlineInDays) public {\n        require(!isCauseRegistered(title), \"error : cause already registered\");\n\n        address creator = msg.sender;\n        causes[title] = Cause(title, description, creator, beneficiary, goal, 0, deadlineInDays * SECONDS_IN_DAY + block.timestamp);\n        registeredCausesCount++;\n        registeredCausesMap[title] = true;\n    }\n\n    // maybe add require the donator to not be the cause creator or beneficiary\n    function donateToCause(string memory title) public payable {\n        require(isCauseRegistered(title), \"error : not such cause registered\");\n        require(!isCauseFinished(title), \"error : cause already finished\");\n\n        Cause storage cause = causes[title];\n\n        if (cause.deadlineTimestamp < block.timestamp) {\n            transferCauseDonations(cause);\n            addCauseToFinished(title);\n            return;\n        }\n\n        address sender = msg.sender;\n        uint256 value = msg.value;\n        Donation[] storage donatorsForCause = causeDonators[cause.title];\n\n        cause.currentAmount += value;\n        donatorsForCause.push(Donation(sender, value, block.timestamp));\n\n        if (checkGoalReached(cause)) {\n            transferCauseDonations(cause);\n            addCauseToFinished(title);\n        }\n    }\n\n    function stopCause(string memory title) public payable returns (bool) {\n        require(isCauseRegistered(title), \"error : not such cause registered\");\n        require(!isCauseFinished(title), \"error : cause already finished\");\n\n        Cause storage cause = causes[title];\n\n        require(cause.creator == msg.sender, \"error : to stop the cause you have to be the cause creator\");\n\n        transferCauseDonations(cause);\n        addCauseToFinished(title);\n\n        return true;\n    }\n\n    function extendCauseDeadline(string memory title, uint256 daysToExtend) public returns (bool) {\n        require(isCauseRegistered(title), \"error : not such cause registered\");\n        require(!isCauseFinished(title), \"error : cause already finished\");\n\n        Cause storage cause = causes[title];\n\n        require(cause.creator == msg.sender, \"error : to extend the deadline you have to be the cause creator\");\n        require(daysToExtend <= MAX_ALLOWED_DAY_EXTENSION_OF_CAUSE, \"error : the maximum allowed extension is 30 days\");\n\n        cause.deadlineTimestamp += daysToExtend * SECONDS_IN_DAY;\n        return true;\n    }\n\n    // maybe add require for maximum allowed increase\n    function increaseCauseGoal(string memory title, uint256 goalIncrease) public returns (bool) {\n        require(isCauseRegistered(title), \"error : not such cause registered\");\n        require(!isCauseFinished(title), \"error : cause already finished\");\n\n        Cause storage cause = causes[title];\n\n        require(cause.creator == msg.sender, \"error : to extend the goal you have to be the cause creator\");\n\n        cause.goal += goalIncrease;\n        return true;\n    }\n\n    function addSimilarCause(string memory title, string memory similarCauseTitle) public {\n        require(isCauseRegistered(title), \"error : cause - not such cause registered\");\n        require(isCauseRegistered(similarCauseTitle), \"error : similar cause - not such cause registered\");\n\n        string[] storage similarCausesForCause = similarCauses[title];\n\n        similarCausesForCause.push(similarCauseTitle);\n    }\n\n    // return of reference type is not supported, have to use the experimental feature\n    // function getSimilarCauses(string memory title) public returns (string[] memory) {\n    //     require(isCauseRegistered(title), \"error : cause - not such cause registered\");\n\n    //     return similarCauses[title];\n    // }\n\n    function isCauseGoalReached(string memory title) public view returns (bool reached) {\n        require(isCauseRegistered(title), \"error : not such cause registered\");\n\n        Cause storage cause = causes[title];\n\n        return checkGoalReached(cause);\n    }\n\n    function getCauseProgress(string memory title) public view returns (uint) {\n        require(isCauseRegistered(title), \"error : not such cause registered\");\n\n        Cause storage cause = causes[title];\n\n        return cause.currentAmount;\n    }\n\n    function getCauseGoal(string memory title) public view returns (uint) {\n        require(isCauseRegistered(title), \"error : not such cause registered\");\n\n        Cause storage cause = causes[title];\n\n        return cause.goal;\n    }\n\n    function getCauseDeadlineInTimestamp(string memory title) public view returns (uint256) {\n        require(isCauseRegistered(title), \"error : not such cause registered\");\n\n        Cause storage cause = causes[title];\n\n        return cause.deadlineTimestamp;\n    }\n\n    function checkDaysLeftForCause(string memory title) public view returns (uint256) {\n        require(isCauseRegistered(title), \"error : not such cause registered\");\n\n        Cause storage cause = causes[title];\n\n        if (cause.deadlineTimestamp < block.timestamp) {\n            return 0;\n        } else {\n            // integer division so it truncates, so when it is below 1 day it will show 0\n            return (cause.deadlineTimestamp - block.timestamp) / SECONDS_IN_DAY;\n        }\n    }\n\n    function getCauseDescription(string memory title) public view returns(string memory) {\n        require(isCauseRegistered(title), \"error : not such cause registered\");\n\n        Cause storage cause = causes[title];\n\n        return cause.description;\n    }\n\n    function getDonationsForCause(string memory title) public view returns (address[] memory, uint256[] memory, uint256[] memory) {\n        require(isCauseRegistered(title), \"error : not such cause registered\");\n\n        Donation[] storage donationsForCause = causeDonators[title];\n\n        address[] memory addresses = new address[](donationsForCause.length);\n        uint[] memory donationAmounts = new uint[](donationsForCause.length);\n        uint[] memory donationTimestamps = new uint[](donationsForCause.length);\n\n        for (uint256 i = 0; i < donationsForCause.length; i++) {\n            addresses[i] = donationsForCause[i].donator;\n            donationAmounts[i] = donationsForCause[i].amount;\n            donationTimestamps[i] = donationsForCause[i].timestamp;\n        }\n\n        return (addresses, donationAmounts, donationTimestamps);\n    }\n\n    function getNumberOfRegisteredCauses() public view returns (uint256) {\n        return registeredCausesCount;\n    }\n\n    function getNumberOfFinishedCauses() public view returns (uint256) {\n        return finishedCausesCount;\n    }\n\n    // private helpers\n    function isCauseRegistered(string memory title) private view returns (bool) {\n        return registeredCausesMap[title];\n    }\n\n    function isCauseFinished(string memory title) private view returns (bool) {\n        return finishedCausesMap[title];\n    }\n\n    function strCompare(string memory left, string memory right) private pure returns (bool) {\n        return keccak256(abi.encodePacked(left)) == keccak256(abi.encodePacked(right));\n    }\n\n    function checkGoalReached(Cause storage cause) private view returns (bool reached) {\n        return cause.currentAmount >= cause.goal;\n    }\n\n    function transferCauseDonations(Cause storage cause) private {\n        uint256 amount = cause.currentAmount;\n\n        cause.beneficiary.transfer(amount);\n    }\n\n    function addCauseToFinished(string memory title) private {\n        finishedCausesCount++;\n        finishedCausesMap[title] = true;\n    }\n}\n",
  "sourcePath": "/home/alexandra/Documents/fmi-blockchain/truffle-app/contracts/ChainFund.sol",
  "compiler": {
    "name": "solc",
    "version": "0.6.8+commit.0bbfe453.Emscripten.clang"
  },
  "schemaVersion": "3.3.3",
  "updatedAt": "2021-02-07T15:02:11.295Z",
  "networkType": "ethereum",
  "devdoc": {
    "methods": {}
  },
  "userdoc": {
    "methods": {}
  }
}