{
  "contractName": "ChainFund",
  "abi": [
    {
      "inputs": [],
      "stateMutability": "nonpayable",
      "type": "constructor"
    },
    {
      "inputs": [],
      "name": "MAX_ALLOWED_DAY_EXTENSION_OF_CAUSE",
      "outputs": [
        {
          "internalType": "uint256",
          "name": "",
          "type": "uint256"
        }
      ],
      "stateMutability": "view",
      "type": "function"
    },
    {
      "inputs": [
        {
          "internalType": "string",
          "name": "title",
          "type": "string"
        },
        {
          "internalType": "string",
          "name": "description",
          "type": "string"
        },
        {
          "internalType": "address payable",
          "name": "beneficiary",
          "type": "address"
        },
        {
          "internalType": "uint256",
          "name": "goal",
          "type": "uint256"
        },
        {
          "internalType": "uint256",
          "name": "deadlineInDays",
          "type": "uint256"
        }
      ],
      "name": "addCause",
      "outputs": [],
      "stateMutability": "nonpayable",
      "type": "function"
    },
    {
      "inputs": [
        {
          "internalType": "string",
          "name": "title",
          "type": "string"
        }
      ],
      "name": "donateToCause",
      "outputs": [],
      "stateMutability": "payable",
      "type": "function"
    },
    {
      "inputs": [
        {
          "internalType": "string",
          "name": "title",
          "type": "string"
        }
      ],
      "name": "stopCause",
      "outputs": [
        {
          "internalType": "bool",
          "name": "",
          "type": "bool"
        }
      ],
      "stateMutability": "payable",
      "type": "function"
    },
    {
      "inputs": [
        {
          "internalType": "string",
          "name": "title",
          "type": "string"
        },
        {
          "internalType": "uint256",
          "name": "daysToExtend",
          "type": "uint256"
        }
      ],
      "name": "extendCauseDeadline",
      "outputs": [
        {
          "internalType": "bool",
          "name": "",
          "type": "bool"
        }
      ],
      "stateMutability": "nonpayable",
      "type": "function"
    },
    {
      "inputs": [
        {
          "internalType": "string",
          "name": "title",
          "type": "string"
        },
        {
          "internalType": "uint256",
          "name": "goalIncrease",
          "type": "uint256"
        }
      ],
      "name": "increaseCauseGoal",
      "outputs": [
        {
          "internalType": "bool",
          "name": "",
          "type": "bool"
        }
      ],
      "stateMutability": "nonpayable",
      "type": "function"
    },
    {
      "inputs": [
        {
          "internalType": "string",
          "name": "title",
          "type": "string"
        },
        {
          "internalType": "string",
          "name": "similarCauseTitle",
          "type": "string"
        }
      ],
      "name": "addSimilarCause",
      "outputs": [],
      "stateMutability": "nonpayable",
      "type": "function"
    },
    {
      "inputs": [
        {
          "internalType": "string",
          "name": "title",
          "type": "string"
        }
      ],
      "name": "isCauseGoalReached",
      "outputs": [
        {
          "internalType": "bool",
          "name": "reached",
          "type": "bool"
        }
      ],
      "stateMutability": "view",
      "type": "function"
    },
    {
      "inputs": [
        {
          "internalType": "string",
          "name": "title",
          "type": "string"
        }
      ],
      "name": "getCauseProgress",
      "outputs": [
        {
          "internalType": "uint256",
          "name": "",
          "type": "uint256"
        }
      ],
      "stateMutability": "view",
      "type": "function"
    },
    {
      "inputs": [
        {
          "internalType": "string",
          "name": "title",
          "type": "string"
        }
      ],
      "name": "getCauseGoal",
      "outputs": [
        {
          "internalType": "uint256",
          "name": "",
          "type": "uint256"
        }
      ],
      "stateMutability": "view",
      "type": "function"
    },
    {
      "inputs": [
        {
          "internalType": "string",
          "name": "title",
          "type": "string"
        }
      ],
      "name": "getCauseDeadlineInTimestamp",
      "outputs": [
        {
          "internalType": "uint256",
          "name": "",
          "type": "uint256"
        }
      ],
      "stateMutability": "view",
      "type": "function"
    },
    {
      "inputs": [
        {
          "internalType": "string",
          "name": "title",
          "type": "string"
        }
      ],
      "name": "checkDaysLeftForCause",
      "outputs": [
        {
          "internalType": "uint256",
          "name": "",
          "type": "uint256"
        }
      ],
      "stateMutability": "view",
      "type": "function"
    },
    {
      "inputs": [
        {
          "internalType": "string",
          "name": "title",
          "type": "string"
        }
      ],
      "name": "getCauseDescription",
      "outputs": [
        {
          "internalType": "string",
          "name": "",
          "type": "string"
        }
      ],
      "stateMutability": "view",
      "type": "function"
    },
    {
      "inputs": [
        {
          "internalType": "string",
          "name": "title",
          "type": "string"
        }
      ],
      "name": "getDonationsForCause",
      "outputs": [
        {
          "internalType": "address[]",
          "name": "",
          "type": "address[]"
        },
        {
          "internalType": "uint256[]",
          "name": "",
          "type": "uint256[]"
        },
        {
          "internalType": "uint256[]",
          "name": "",
          "type": "uint256[]"
        }
      ],
      "stateMutability": "view",
      "type": "function"
    },
    {
      "inputs": [],
      "name": "getNumberOfRegisteredCauses",
      "outputs": [
        {
          "internalType": "uint256",
          "name": "",
          "type": "uint256"
        }
      ],
      "stateMutability": "view",
      "type": "function"
    },
    {
      "inputs": [],
      "name": "getNumberOfFinishedCauses",
      "outputs": [
        {
          "internalType": "uint256",
          "name": "",
          "type": "uint256"
        }
      ],
      "stateMutability": "view",
      "type": "function"
    }
  ],
  "bytecode": "0x608060405234801561001057600080fd5b506000808190555060006001819055506129e58061002f6000396000f3fe6080604052600436106100f35760003560e01c80636a3aed631161008a578063acdcf99211610059578063acdcf99214610ba0578063b22ad4e214610c80578063b6a8d29714610d5c578063fc1a345714610e2f576100f3565b80636a3aed631461074b578063721ec2a8146108355780637f19c559146109e2578063aa72058f14610b75576100f3565b80633936c8e8116100c65780633936c8e81461041c5780633ef4694f146104d75780634d5af1951461050257806359b78d9e14610661576100f3565b80630370f44a146100f85780630a33b3b4146102395780631d1e1db21461026457806324655aa014610340575b600080fd5b34801561010457600080fd5b506101be6004803603602081101561011b57600080fd5b810190808035906020019064010000000081111561013857600080fd5b82018360208201111561014a57600080fd5b8035906020019184600183028401116401000000008311171561016c57600080fd5b91908080601f016020809104026020016040519081016040528093929190818152602001838380828437600081840152601f19601f820116905080830192505050505050509192919290505050610f0b565b6040518080602001828103825283818151815260200191508051906020019080838360005b838110156101fe5780820151818401526020810190506101e3565b50505050905090810190601f16801561022b5780820380516001836020036101000a031916815260200191505b509250505060405180910390f35b34801561024557600080fd5b5061024e61107d565b6040518082815260200191505060405180910390f35b34801561027057600080fd5b5061032a6004803603602081101561028757600080fd5b81019080803590602001906401000000008111156102a457600080fd5b8201836020820111156102b657600080fd5b803590602001918460018302840111640100000000831117156102d857600080fd5b91908080601f016020809104026020016040519081016040528093929190818152602001838380828437600081840152601f19601f820116905080830192505050505050509192919290505050611082565b6040518082815260200191505060405180910390f35b34801561034c57600080fd5b506104066004803603602081101561036357600080fd5b810190808035906020019064010000000081111561038057600080fd5b82018360208201111561039257600080fd5b803590602001918460018302840111640100000000831117156103b457600080fd5b91908080601f016020809104026020016040519081016040528093929190818152602001838380828437600081840152601f19601f82011690508083019250505050505050919291929050505061115c565b6040518082815260200191505060405180910390f35b6104d56004803603602081101561043257600080fd5b810190808035906020019064010000000081111561044f57600080fd5b82018360208201111561046157600080fd5b8035906020019184600183028401116401000000008311171561048357600080fd5b91908080601f016020809104026020016040519081016040528093929190818152602001838380828437600081840152601f19601f82011690508083019250505050505050919291929050505061125b565b005b3480156104e357600080fd5b506104ec61153b565b6040518082815260200191505060405180910390f35b34801561050e57600080fd5b5061065f6004803603604081101561052557600080fd5b810190808035906020019064010000000081111561054257600080fd5b82018360208201111561055457600080fd5b8035906020019184600183028401116401000000008311171561057657600080fd5b91908080601f016020809104026020016040519081016040528093929190818152602001838380828437600081840152601f19601f820116905080830192505050505050509192919290803590602001906401000000008111156105d957600080fd5b8201836020820111156105eb57600080fd5b8035906020019184600183028401116401000000008311171561060d57600080fd5b91908080601f016020809104026020016040519081016040528093929190818152602001838380828437600081840152601f19601f820116905080830192505050505050509192919290505050611545565b005b34801561066d57600080fd5b506107316004803603604081101561068457600080fd5b81019080803590602001906401000000008111156106a157600080fd5b8201836020820111156106b357600080fd5b803590602001918460018302840111640100000000831117156106d557600080fd5b91908080601f016020809104026020016040519081016040528093929190818152602001838380828437600081840152601f19601f820116905080830192505050505050509192919290803590602001909291905050506116ae565b604051808215151515815260200191505060405180910390f35b34801561075757600080fd5b5061081b6004803603604081101561076e57600080fd5b810190808035906020019064010000000081111561078b57600080fd5b82018360208201111561079d57600080fd5b803590602001918460018302840111640100000000831117156107bf57600080fd5b91908080601f016020809104026020016040519081016040528093929190818152602001838380828437600081840152601f19601f820116905080830192505050505050509192919290803590602001909291905050506118bc565b604051808215151515815260200191505060405180910390f35b34801561084157600080fd5b506108fb6004803603602081101561085857600080fd5b810190808035906020019064010000000081111561087557600080fd5b82018360208201111561088757600080fd5b803590602001918460018302840111640100000000831117156108a957600080fd5b91908080601f016020809104026020016040519081016040528093929190818152602001838380828437600081840152601f19601f820116905080830192505050505050509192919290505050611b29565b60405180806020018060200180602001848103845287818151815260200191508051906020019060200280838360005b8381101561094657808201518184015260208101905061092b565b50505050905001848103835286818151815260200191508051906020019060200280838360005b8381101561098857808201518184015260208101905061096d565b50505050905001848103825285818151815260200191508051906020019060200280838360005b838110156109ca5780820151818401526020810190506109af565b50505050905001965050505050505060405180910390f35b3480156109ee57600080fd5b50610b73600480360360a0811015610a0557600080fd5b8101908080359060200190640100000000811115610a2257600080fd5b820183602082011115610a3457600080fd5b80359060200191846001830284011164010000000083111715610a5657600080fd5b91908080601f016020809104026020016040519081016040528093929190818152602001838380828437600081840152601f19601f82011690508083019250505050505050919291929080359060200190640100000000811115610ab957600080fd5b820183602082011115610acb57600080fd5b80359060200191846001830284011164010000000083111715610aed57600080fd5b91908080601f016020809104026020016040519081016040528093929190818152602001838380828437600081840152601f19601f820116905080830192505050505050509192919290803573ffffffffffffffffffffffffffffffffffffffff1690602001909291908035906020019092919080359060200190929190505050611e0a565b005b348015610b8157600080fd5b50610b8a6120df565b6040518082815260200191505060405180910390f35b348015610bac57600080fd5b50610c6660048036036020811015610bc357600080fd5b8101908080359060200190640100000000811115610be057600080fd5b820183602082011115610bf257600080fd5b80359060200191846001830284011164010000000083111715610c1457600080fd5b91908080601f016020809104026020016040519081016040528093929190818152602001838380828437600081840152601f19601f8201169050808301925050505050505091929192905050506120e8565b604051808215151515815260200191505060405180910390f35b348015610c8c57600080fd5b50610d4660048036036020811015610ca357600080fd5b8101908080359060200190640100000000811115610cc057600080fd5b820183602082011115610cd257600080fd5b80359060200191846001830284011164010000000083111715610cf457600080fd5b91908080601f016020809104026020016040519081016040528093929190818152602001838380828437600081840152601f19601f8201169050808301925050505050505091929192905050506121c6565b6040518082815260200191505060405180910390f35b610e1560048036036020811015610d7257600080fd5b8101908080359060200190640100000000811115610d8f57600080fd5b820183602082011115610da157600080fd5b80359060200191846001830284011164010000000083111715610dc357600080fd5b91908080601f016020809104026020016040519081016040528093929190818152602001838380828437600081840152601f19601f8201169050808301925050505050505091929192905050506122a0565b604051808215151515815260200191505060405180910390f35b348015610e3b57600080fd5b50610ef560048036036020811015610e5257600080fd5b8101908080359060200190640100000000811115610e6f57600080fd5b820183602082011115610e8157600080fd5b80359060200191846001830284011164010000000083111715610ea357600080fd5b91908080601f016020809104026020016040519081016040528093929190818152602001838380828437600081840152601f19601f8201169050808301925050505050505091929192905050506124ad565b6040518082815260200191505060405180910390f35b6060610f1682612587565b610f6b576040517f08c379a00000000000000000000000000000000000000000000000000000000081526004018080602001828103825260218152602001806128516021913960400191505060405180910390fd5b60006004836040518082805190602001908083835b60208310610fa35780518252602082019150602081019050602083039250610f80565b6001836020036101000a03801982511681845116808217855250505050505090500191505090815260200160405180910390209050806001018054600181600116156101000203166002900480601f0160208091040260200160405190810160405280929190818152602001828054600181600116156101000203166002900480156110705780601f1061104557610100808354040283529160200191611070565b820191906000526020600020905b81548152906001019060200180831161105357829003601f168201915b5050505050915050919050565b601e81565b600061108d82612587565b6110e2576040517f08c379a00000000000000000000000000000000000000000000000000000000081526004018080602001828103825260218152602001806128516021913960400191505060405180910390fd5b60006004836040518082805190602001908083835b6020831061111a57805182526020820191506020810190506020830392506110f7565b6001836020036101000a038019825116818451168082178552505050505050905001915050908152602001604051809103902090508060050154915050919050565b600061116782612587565b6111bc576040517f08c379a00000000000000000000000000000000000000000000000000000000081526004018080602001828103825260218152602001806128516021913960400191505060405180910390fd5b60006004836040518082805190602001908083835b602083106111f457805182526020820191506020810190506020830392506111d1565b6001836020036101000a03801982511681845116808217855250505050505090500191505090815260200160405180910390209050428160060154101561123f576000915050611256565b62015180428260060154038161125157fe5b049150505b919050565b61126481612587565b6112b9576040517f08c379a00000000000000000000000000000000000000000000000000000000081526004018080602001828103825260218152602001806128516021913960400191505060405180910390fd5b6112c281612607565b15611335576040517f08c379a000000000000000000000000000000000000000000000000000000000815260040180806020018281038252601e8152602001807f6572726f72203a20636175736520616c72656164792066696e6973686564000081525060200191505060405180910390fd5b60006004826040518082805190602001908083835b6020831061136d578051825260208201915060208101905060208303925061134a565b6001836020036101000a0380198251168184511680821785525050505050509050019150509081526020016040518091039020905042816006015410156113c6576113b781612687565b6113c0826126ff565b50611538565b60003390506000349050600060058460000160405180828054600181600116156101000203166002900480156114335780601f10611411576101008083540402835291820191611433565b820191906000526020600020905b81548152906001019060200180831161141f575b5050915050908152602001604051809103902090508184600501600082825401925050819055508060405180606001604052808573ffffffffffffffffffffffffffffffffffffffff16815260200184815260200142815250908060018154018082558091505060019003906000526020600020906003020160009091909190915060008201518160000160006101000a81548173ffffffffffffffffffffffffffffffffffffffff021916908373ffffffffffffffffffffffffffffffffffffffff1602179055506020820151816001015560408201518160020155505061151b84612796565b156115335761152984612687565b611532856126ff565b5b505050505b50565b6000600154905090565b61154e82612587565b6115a3576040517f08c379a00000000000000000000000000000000000000000000000000000000081526004018080602001828103825260298152602001806128ec6029913960400191505060405180910390fd5b6115ac81612587565b611601576040517f08c379a00000000000000000000000000000000000000000000000000000000081526004018080602001828103825260318152602001806129156031913960400191505060405180910390fd5b60006006836040518082805190602001908083835b602083106116395780518252602082019150602081019050602083039250611616565b6001836020036101000a0380198251168184511680821785525050505050509050019150509081526020016040518091039020905080829080600181540180825580915050600190039060005260206000200160009091909190915090805190602001906116a89291906127ab565b50505050565b60006116b983612587565b61170e576040517f08c379a00000000000000000000000000000000000000000000000000000000081526004018080602001828103825260218152602001806128516021913960400191505060405180910390fd5b61171783612607565b1561178a576040517f08c379a000000000000000000000000000000000000000000000000000000000815260040180806020018281038252601e8152602001807f6572726f72203a20636175736520616c72656164792066696e6973686564000081525060200191505060405180910390fd5b60006004846040518082805190602001908083835b602083106117c2578051825260208201915060208101905060208303925061179f565b6001836020036101000a038019825116818451168082178552505050505050905001915050908152602001604051809103902090503373ffffffffffffffffffffffffffffffffffffffff168160020160009054906101000a900473ffffffffffffffffffffffffffffffffffffffff1673ffffffffffffffffffffffffffffffffffffffff161461189f576040517f08c379a000000000000000000000000000000000000000000000000000000000815260040180806020018281038252603b8152602001806128b1603b913960400191505060405180910390fd5b828160040160008282540192505081905550600191505092915050565b60006118c783612587565b61191c576040517f08c379a00000000000000000000000000000000000000000000000000000000081526004018080602001828103825260218152602001806128516021913960400191505060405180910390fd5b61192583612607565b15611998576040517f08c379a000000000000000000000000000000000000000000000000000000000815260040180806020018281038252601e8152602001807f6572726f72203a20636175736520616c72656164792066696e6973686564000081525060200191505060405180910390fd5b60006004846040518082805190602001908083835b602083106119d057805182526020820191506020810190506020830392506119ad565b6001836020036101000a038019825116818451168082178552505050505050905001915050908152602001604051809103902090503373ffffffffffffffffffffffffffffffffffffffff168160020160009054906101000a900473ffffffffffffffffffffffffffffffffffffffff1673ffffffffffffffffffffffffffffffffffffffff1614611aad576040517f08c379a000000000000000000000000000000000000000000000000000000000815260040180806020018281038252603f815260200180612872603f913960400191505060405180910390fd5b601e831115611b07576040517f08c379a00000000000000000000000000000000000000000000000000000000081526004018080602001828103825260308152602001806129466030913960400191505060405180910390fd5b6201518083028160060160008282540192505081905550600191505092915050565b6060806060611b3784612587565b611b8c576040517f08c379a00000000000000000000000000000000000000000000000000000000081526004018080602001828103825260218152602001806128516021913960400191505060405180910390fd5b60006005856040518082805190602001908083835b60208310611bc45780518252602082019150602081019050602083039250611ba1565b6001836020036101000a038019825116818451168082178552505050505050905001915050908152602001604051809103902090506060818054905067ffffffffffffffff81118015611c1657600080fd5b50604051908082528060200260200182016040528015611c455781602001602082028036833780820191505090505b5090506060828054905067ffffffffffffffff81118015611c6557600080fd5b50604051908082528060200260200182016040528015611c945781602001602082028036833780820191505090505b5090506060838054905067ffffffffffffffff81118015611cb457600080fd5b50604051908082528060200260200182016040528015611ce35781602001602082028036833780820191505090505b50905060008090505b8480549050811015611df557848181548110611d0457fe5b906000526020600020906003020160000160009054906101000a900473ffffffffffffffffffffffffffffffffffffffff16848281518110611d4257fe5b602002602001019073ffffffffffffffffffffffffffffffffffffffff16908173ffffffffffffffffffffffffffffffffffffffff1681525050848181548110611d8857fe5b906000526020600020906003020160010154838281518110611da657fe5b602002602001018181525050848181548110611dbe57fe5b906000526020600020906003020160020154828281518110611ddc57fe5b6020026020010181815250508080600101915050611cec565b50828282965096509650505050509193909250565b611e1385612587565b15611e86576040517f08c379a00000000000000000000000000000000000000000000000000000000081526004018080602001828103825260208152602001807f6572726f72203a20636175736520616c7265616479207265676973746572656481525060200191505060405180910390fd5b60003390506040518060e001604052808781526020018681526020018273ffffffffffffffffffffffffffffffffffffffff1681526020018573ffffffffffffffffffffffffffffffffffffffff1681526020018481526020016000815260200142620151808502018152506004876040518082805190602001908083835b60208310611f285780518252602082019150602081019050602083039250611f05565b6001836020036101000a03801982511681845116808217855250505050505090500191505090815260200160405180910390206000820151816000019080519060200190611f779291906127ab565b506020820151816001019080519060200190611f949291906127ab565b5060408201518160020160006101000a81548173ffffffffffffffffffffffffffffffffffffffff021916908373ffffffffffffffffffffffffffffffffffffffff16021790555060608201518160030160006101000a81548173ffffffffffffffffffffffffffffffffffffffff021916908373ffffffffffffffffffffffffffffffffffffffff1602179055506080820151816004015560a0820151816005015560c08201518160060155905050600080815480929190600101919050555060016002876040518082805190602001908083835b6020831061208d578051825260208201915060208101905060208303925061206a565b6001836020036101000a038019825116818451168082178552505050505050905001915050908152602001604051809103902060006101000a81548160ff021916908315150217905550505050505050565b60008054905090565b60006120f382612587565b612148576040517f08c379a00000000000000000000000000000000000000000000000000000000081526004018080602001828103825260218152602001806128516021913960400191505060405180910390fd5b60006004836040518082805190602001908083835b60208310612180578051825260208201915060208101905060208303925061215d565b6001836020036101000a038019825116818451168082178552505050505050905001915050908152602001604051809103902090506121be81612796565b915050919050565b60006121d182612587565b612226576040517f08c379a00000000000000000000000000000000000000000000000000000000081526004018080602001828103825260218152602001806128516021913960400191505060405180910390fd5b60006004836040518082805190602001908083835b6020831061225e578051825260208201915060208101905060208303925061223b565b6001836020036101000a038019825116818451168082178552505050505050905001915050908152602001604051809103902090508060040154915050919050565b60006122ab82612587565b612300576040517f08c379a00000000000000000000000000000000000000000000000000000000081526004018080602001828103825260218152602001806128516021913960400191505060405180910390fd5b61230982612607565b1561237c576040517f08c379a000000000000000000000000000000000000000000000000000000000815260040180806020018281038252601e8152602001807f6572726f72203a20636175736520616c72656164792066696e6973686564000081525060200191505060405180910390fd5b60006004836040518082805190602001908083835b602083106123b45780518252602082019150602081019050602083039250612391565b6001836020036101000a038019825116818451168082178552505050505050905001915050908152602001604051809103902090503373ffffffffffffffffffffffffffffffffffffffff168160020160009054906101000a900473ffffffffffffffffffffffffffffffffffffffff1673ffffffffffffffffffffffffffffffffffffffff1614612491576040517f08c379a000000000000000000000000000000000000000000000000000000000815260040180806020018281038252603a815260200180612976603a913960400191505060405180910390fd5b61249a81612687565b6124a3836126ff565b6001915050919050565b60006124b882612587565b61250d576040517f08c379a00000000000000000000000000000000000000000000000000000000081526004018080602001828103825260218152602001806128516021913960400191505060405180910390fd5b60006004836040518082805190602001908083835b602083106125455780518252602082019150602081019050602083039250612522565b6001836020036101000a038019825116818451168082178552505050505050905001915050908152602001604051809103902090508060060154915050919050565b60006002826040518082805190602001908083835b602083106125bf578051825260208201915060208101905060208303925061259c565b6001836020036101000a038019825116818451168082178552505050505050905001915050908152602001604051809103902060009054906101000a900460ff169050919050565b60006003826040518082805190602001908083835b6020831061263f578051825260208201915060208101905060208303925061261c565b6001836020036101000a038019825116818451168082178552505050505050905001915050908152602001604051809103902060009054906101000a900460ff169050919050565b6000816005015490508160030160009054906101000a900473ffffffffffffffffffffffffffffffffffffffff1673ffffffffffffffffffffffffffffffffffffffff166108fc829081150290604051600060405180830381858888f193505050501580156126fa573d6000803e3d6000fd5b505050565b60016000815480929190600101919050555060016003826040518082805190602001908083835b602083106127495780518252602082019150602081019050602083039250612726565b6001836020036101000a038019825116818451168082178552505050505050905001915050908152602001604051809103902060006101000a81548160ff02191690831515021790555050565b60008160040154826005015410159050919050565b828054600181600116156101000203166002900490600052602060002090601f016020900481019282601f106127ec57805160ff191683800117855561281a565b8280016001018555821561281a579182015b828111156128195782518255916020019190600101906127fe565b5b509050612827919061282b565b5090565b61284d91905b80821115612849576000816000905550600101612831565b5090565b9056fe6572726f72203a206e6f74207375636820636175736520726567697374657265646572726f72203a20746f20657874656e642074686520646561646c696e6520796f75206861766520746f206265207468652063617573652063726561746f726572726f72203a20746f20657874656e642074686520676f616c20796f75206861766520746f206265207468652063617573652063726561746f726572726f72203a206361757365202d206e6f74207375636820636175736520726567697374657265646572726f72203a2073696d696c6172206361757365202d206e6f74207375636820636175736520726567697374657265646572726f72203a20746865206d6178696d756d20616c6c6f77656420657874656e73696f6e20697320333020646179736572726f72203a20746f2073746f702074686520636175736520796f75206861766520746f206265207468652063617573652063726561746f72a2646970667358221220d6703e2156c72fb321e00a21bfa265edb683243993485b16b20a1e02c58c30bb64736f6c63430006080033",
  "immutableReferences": {},
  "source": "// SPDX-License-Identifier: GPL-3.0\npragma solidity >=0.6.6 <0.8.0;\n\nimport \"./Cause.sol\";\nimport \"./Donator.sol\";\n\ncontract ChainFund {\n    uint256 private constant SECONDS_IN_DAY = 24 * 60 * 60;\n\n    uint256 private registeredCausesCount;\n    uint256 private finishedCausesCount;\n\n    mapping(string => bool) private registeredCausesMap;\n    mapping(string => bool) private finishedCausesMap;\n\n    mapping(string => Cause) private causes;\n    mapping(string => Donation[]) private causeDonators;\n\n    mapping(string => string[]) private similarCauses;\n\n    uint256 public constant MAX_ALLOWED_DAY_EXTENSION_OF_CAUSE = 30;\n\n    constructor () public {\n        registeredCausesCount = 0;\n        finishedCausesCount = 0;\n    }\n\n    function addCause(string memory title, string memory description, address payable beneficiary, uint256 goal, uint256 deadlineInDays) public {\n        require(!isCauseRegistered(title), \"error : cause already registered\");\n\n        address creator = msg.sender;\n        causes[title] = Cause(title, description, creator, beneficiary, goal, 0, deadlineInDays * SECONDS_IN_DAY + block.timestamp);\n        registeredCausesCount++;\n        registeredCausesMap[title] = true;\n    }\n\n    // maybe add require the donator to not be the cause creator or beneficiary\n    function donateToCause(string memory title) public payable {\n        require(isCauseRegistered(title), \"error : not such cause registered\");\n        require(!isCauseFinished(title), \"error : cause already finished\");\n\n        Cause storage cause = causes[title];\n\n        if (cause.deadlineTimestamp < block.timestamp) {\n            transferCauseDonations(cause);\n            addCauseToFinished(title);\n            return;\n        }\n\n        address sender = msg.sender;\n        uint256 value = msg.value;\n        Donation[] storage donatorsForCause = causeDonators[cause.title];\n\n        cause.currentAmount += value;\n        donatorsForCause.push(Donation(sender, value, block.timestamp));\n\n        if (checkGoalReached(cause)) {\n            transferCauseDonations(cause);\n            addCauseToFinished(title);\n        }\n    }\n\n    function stopCause(string memory title) public payable returns (bool) {\n        require(isCauseRegistered(title), \"error : not such cause registered\");\n        require(!isCauseFinished(title), \"error : cause already finished\");\n\n        Cause storage cause = causes[title];\n\n        require(cause.creator == msg.sender, \"error : to stop the cause you have to be the cause creator\");\n\n        transferCauseDonations(cause);\n        addCauseToFinished(title);\n\n        return true;\n    }\n\n    function extendCauseDeadline(string memory title, uint256 daysToExtend) public returns (bool) {\n        require(isCauseRegistered(title), \"error : not such cause registered\");\n        require(!isCauseFinished(title), \"error : cause already finished\");\n\n        Cause storage cause = causes[title];\n\n        require(cause.creator == msg.sender, \"error : to extend the deadline you have to be the cause creator\");\n        require(daysToExtend <= MAX_ALLOWED_DAY_EXTENSION_OF_CAUSE, \"error : the maximum allowed extension is 30 days\");\n\n        cause.deadlineTimestamp += daysToExtend * SECONDS_IN_DAY;\n        return true;\n    }\n\n    // maybe add require for maximum allowed increase\n    function increaseCauseGoal(string memory title, uint256 goalIncrease) public returns (bool) {\n        require(isCauseRegistered(title), \"error : not such cause registered\");\n        require(!isCauseFinished(title), \"error : cause already finished\");\n\n        Cause storage cause = causes[title];\n\n        require(cause.creator == msg.sender, \"error : to extend the goal you have to be the cause creator\");\n\n        cause.goal += goalIncrease;\n        return true;\n    }\n\n    function addSimilarCause(string memory title, string memory similarCauseTitle) public {\n        require(isCauseRegistered(title), \"error : cause - not such cause registered\");\n        require(isCauseRegistered(similarCauseTitle), \"error : similar cause - not such cause registered\");\n\n        string[] storage similarCausesForCause = similarCauses[title];\n\n        similarCausesForCause.push(similarCauseTitle);\n    }\n\n    // return of reference type is not supported, have to use the experimental feature\n    // function getSimilarCauses(string memory title) public returns (string[] memory) {\n    //     require(isCauseRegistered(title), \"error : cause - not such cause registered\");\n\n    //     return similarCauses[title];\n    // }\n\n    function isCauseGoalReached(string memory title) public view returns (bool reached) {\n        require(isCauseRegistered(title), \"error : not such cause registered\");\n\n        Cause storage cause = causes[title];\n\n        return checkGoalReached(cause);\n    }\n\n    function getCauseProgress(string memory title) public view returns (uint) {\n        require(isCauseRegistered(title), \"error : not such cause registered\");\n\n        Cause storage cause = causes[title];\n\n        return cause.currentAmount;\n    }\n\n    function getCauseGoal(string memory title) public view returns (uint) {\n        require(isCauseRegistered(title), \"error : not such cause registered\");\n\n        Cause storage cause = causes[title];\n\n        return cause.goal;\n    }\n\n    function getCauseDeadlineInTimestamp(string memory title) public view returns (uint256) {\n        require(isCauseRegistered(title), \"error : not such cause registered\");\n\n        Cause storage cause = causes[title];\n\n        return cause.deadlineTimestamp;\n    }\n\n    function checkDaysLeftForCause(string memory title) public view returns (uint256) {\n        require(isCauseRegistered(title), \"error : not such cause registered\");\n\n        Cause storage cause = causes[title];\n\n        if (cause.deadlineTimestamp < block.timestamp) {\n            return 0;\n        } else {\n            // integer division so it truncates, so when it is below 1 day it will show 0\n            return (cause.deadlineTimestamp - block.timestamp) / SECONDS_IN_DAY;\n        }\n    }\n\n    function getCauseDescription(string memory title) public view returns(string memory) {\n        require(isCauseRegistered(title), \"error : not such cause registered\");\n\n        Cause storage cause = causes[title];\n\n        return cause.description;\n    }\n\n    function getDonationsForCause(string memory title) public view returns (address[] memory, uint256[] memory, uint256[] memory) {\n        require(isCauseRegistered(title), \"error : not such cause registered\");\n\n        Donation[] storage donationsForCause = causeDonators[title];\n\n        address[] memory addresses = new address[](donationsForCause.length);\n        uint[] memory donationAmounts = new uint[](donationsForCause.length);\n        uint[] memory donationTimestamps = new uint[](donationsForCause.length);\n\n        for (uint256 i = 0; i < donationsForCause.length; i++) {\n            addresses[i] = donationsForCause[i].donator;\n            donationAmounts[i] = donationsForCause[i].amount;\n            donationTimestamps[i] = donationsForCause[i].timestamp;\n        }\n\n        return (addresses, donationAmounts, donationTimestamps);\n    }\n\n    function getNumberOfRegisteredCauses() public view returns (uint256) {\n        return registeredCausesCount;\n    }\n\n    function getNumberOfFinishedCauses() public view returns (uint256) {\n        return finishedCausesCount;\n    }\n\n    // private helpers\n    function isCauseRegistered(string memory title) private view returns (bool) {\n        return registeredCausesMap[title];\n    }\n\n    function isCauseFinished(string memory title) private view returns (bool) {\n        return finishedCausesMap[title];\n    }\n\n    function strCompare(string memory left, string memory right) private pure returns (bool) {\n        return keccak256(abi.encodePacked(left)) == keccak256(abi.encodePacked(right));\n    }\n\n    function checkGoalReached(Cause storage cause) private view returns (bool reached) {\n        return cause.currentAmount >= cause.goal;\n    }\n\n    function transferCauseDonations(Cause storage cause) private {\n        uint256 amount = cause.currentAmount;\n\n        cause.beneficiary.transfer(amount);\n    }\n\n    function addCauseToFinished(string memory title) private {\n        finishedCausesCount++;\n        finishedCausesMap[title] = true;\n    }\n}\n",
  "sourcePath": "/home/admin/Documents/4 /Blockchain/truffle/contracts/ChainFund.sol",
  "compiler": {
    "name": "solc",
    "version": "0.6.8+commit.0bbfe453.Emscripten.clang"
  },
  "schemaVersion": "3.3.3",
  "updatedAt": "2021-02-04T19:29:21.390Z",
  "devdoc": {
    "methods": {}
  },
  "userdoc": {
    "methods": {}
  }
}